:100000000C942D000C9455000C9455000C94550044
:100010000C9455000C9455000C9455000C9455000C
:100020000C9455000C9455000C9455000C945500FC
:100030000C9455000C944D030C9455000C945500F1
:100040000C9455000C9455000C9455000C945500DC
:100050000C9455008F08C308EB0811241FBECFE590
:10006000D8E0DEBFCDBF20E0A6E6B0E001C01D9223
:10007000A737B207E1F710E0A0E6B0E0E4ECF4E166
:1000800002C005900D92A636B107D9F710E0C8E579
:10009000D0E004C02297FE010E942A09C435D1078E
:1000A000C9F70E9413080C94550A0C94000085B3FC
:1000B0008C6F85BB82B3806A82BB84B3837084BB40
:1000C00081B38F7581BB8FEF8BBB9AB38ABB0895C9
:1000D000CF93DF93EC01809168008823A1F193B363
:1000E00063B343B320B380B370E0609570956470E0
:1000F0007727660F771F50E0409550954870552739
:1001000055954795462B9095907F492B30E020954B
:10011000309520783327A6E035952795AA95E1F705
:10012000422B90E08095909585FB882780F9482B9D
:1001300080916900481739F04093690020E061EA36
:10014000CE010E947D0880916600882381F18BB3E7
:100150006BB34BB32BB370E06095709563FB662770
:1001600060F950E040955095447055275595479556
:10017000462B8095807F482B30E02095309522706B
:100180003327220F331F422BD89902C068E001C0E9
:1001900060E0462B80916700481749F04093670064
:1001A00020E061EDCE01DF91CF910C947D08DF91CD
:1001B000CF9108950895613A19F0613D71F153C0EE
:1001C00033B363B343B320B3E0B370E0609570958D
:1001D00064707727660F771F50E040955095487000
:1001E000552755954795462B3095307F432B30E06A
:1001F0002095309520783327B6E035952795BA9528
:10020000E1F7422B2E2F30E02095309525FB222759
:1002100020F9422B2FEF61EA29C03BB36BB34BB3FC
:100220002BB370E06095709563FB662760F950E032
:10023000409550954470552755954795462B3095D8
:10024000307F432B30E02095309522703327220FEA
:10025000331F422BD89902C068E001C060E0462BF2
:100260002FEF61ED03C02FEF40E06FE90C946B08B6
:100270008F929F92AF92BF92CF92DF92EF92FF92B6
:100280000F931F93CF93DF93613D09F018C13BB3E8
:10029000EBB38BB3CBB2F0E0E095F095E3FBEE2748
:1002A000E0F990E0809590958470992795958795D1
:1002B0008E2B3095307F832BD12CC094D09432E09C
:1002C000C322DD24CC0CDD1C8C29D89902C0E8E0C7
:1002D00001C0E0E042238E2B922F90958923842B3E
:1002E000807F9BB38BB2ABB2CBB2912C80949094B5
:1002F00083FAEE24E0F8F12CB12CA094B09464E0E1
:10030000A622BB24B594A794EA28FB28A92EB12CD9
:10031000A094B09490EFA922BB24EA28FB28D12C0A
:10032000C094D09432E0C322DD24CC0CDD1CEC2838
:10033000FD28D89903C068E070E002C060E070E07A
:1003400030E02095309550E0E62AF72AE222F322A9
:10035000E42AF52AE3FAEE27E0F98E2B9BB38BB261
:10036000ABB2CBB2912C8094909483FA002700F921
:1003700010E0B12CA094B09464E0A622BB24B59404
:10038000A7940A291B29A92EB12CA094B09490EF10
:10039000A922BB240A291B29D12CC094D09462E045
:1003A000C622DD24CC0CDD1C0C291D29D89903C0E4
:1003B000E8E0F0E002C0E0E0F0E0E02BF12BE22327
:1003C000F323E42BF52BE470FF27F595E795E82B55
:1003D0008BB3ABB2CBB20BB3B12CA094B094A3FA55
:1003E000992790F9C92F60E0D62FD12CC094D094D2
:1003F00094E0C922DD24D594C794CC29DD29C82EE8
:10040000D12CC094D09460EFC622DD24CC29DD2904
:1004100010E00095109502701127000F111FC02BDE
:10042000D12BD89903C068E070E002C060E070E0B2
:100430006C2B7D2B62237323642B752B62707727C3
:10044000660F771F6E2B8BB3CBB20BB3CBB3D12C14
:10045000C094D094C3FAAA27A0F9B0E010E00095A8
:1004600010950470112715950795A02BB12B082F17
:1004700010E000951095007F1127A02BB12BD0E044
:10048000C095D095C270DD27CC0FDD1FAC2BBD2BE6
:10049000D89903C088E090E002C080E090E08A2B09
:1004A0009B2B82239323842B952B81709927C3E068
:1004B000880F991FCA95E1F7862B80958BBBDF913A
:1004C000CF911F910F91FF90EF90DF90CF90BF9051
:1004D000AF909F908F900895613DA9F5842F90E093
:1004E0002223D9F06BB3453060F444E050E0481B60
:1004F000590B21E030E0042E01C0220F0A94EAF7E4
:1005000008C0019721E030E0082E01C0220F0A94B4
:10051000EAF7209526232BBB08955BB3453050F4B2
:1005200024E030E0281B390B81E001C0880F2A95B8
:10053000EAF707C0019791E001C0990F8A95EAF7A1
:10054000892F852B8BBB0895613DA9F55BB3842F63
:1005500090E0453030F464E070E0681B790B31E0E6
:1005600004C031E0BC016150710901C0330F6A95CC
:10057000EAF735273BBB222341F0EFE9FFE0319753
:10058000F1F700C000002150F6CF5BB3453050F4C6
:1005900024E030E0281B390B81E001C0880F2A9548
:1005A000EAF707C0019791E001C0990F8A95EAF731
:1005B000892F85278BBB0895613A19F0613DC1F100
:1005C00067C033B3E3B343B360B3A0B3F0E0E095E7
:1005D000F095E470FF27EE0FFF1F50E04095509517
:1005E00048705527559547954E2B3095307F432BB6
:1005F00070E06095709560787727E6E0759567956F
:10060000EA95E1F7462B6A2F70E06095709565FBDF
:10061000662760F9462B31E03227309368002223A9
:1006200011F030E001C0342F3093690061EA33C02B
:100630003BB3EBB34BB36BB3F0E0E095F095E3FB6A
:10064000EE27E0F950E040955095447055275595B8
:1006500047954E2B3095307F432B70E06095709519
:1006600062707727660F771F462BD89902C0E8E0A3
:1006700001C0E0E04E2B31E03227309366002223A8
:1006800011F030E001C0342F3093670061ED03C0FA
:1006900021E040E06FE90C947D081F920F920FB6A5
:1006A0000F9211242F933F934F935F936F937F93F8
:1006B0008F939F93AF93BF93EF93FF936CB15A992E
:1006C00004C08AE690E00E94F103FF91EF91BF9190
:1006D000AF919F918F917F916F915F914F913F91DA
:1006E0002F910F900FBE0F901F9018950895CF93E4
:1006F000C22F9A0140E050E060E079E08DE390E0A5
:100700000E94060921503109410951095695479522
:1007100037952795832F992780BD29B982E08BB91A
:1007200088E98AB9CC2311F084EA01C086E880BD4B
:1007300081E0CF91089553988AB18F768AB9089550
:100740000C949B03CF93DF93EB0120917200222343
:1007500029F1E0916E00F0916F006191F0936F00CC
:10076000E0936E0080916C0090916D00E817F9079E
:1007700041F480916A0090916B0090936F00809398
:100780006E00215020937200CE010E94F103CE0131
:100790000E9498088111D9CF81E001C080E0DF91EB
:1007A000CF9108950F931F93CF93DF93EB01CB016C
:1007B0000E94980881110FC0088510E0101749F0B9
:1007C0005D9BFECF612FCE010E9425048CB91F5F77
:1007D000F5CF81E001C080E0DF91CF911F910F91B3
:1007E0000895FC0182819081891B9085891318C02E
:1007F000882351F1A681B7816C93868197810196F8
:1008000097838683228133818217930721F4808125
:1008100091819783868386819781958384830895C8
:10082000A681B7816C938681978101969783868391
:10083000228133818217930721F4808191819783EC
:10084000868380858F5F80870895FC018085681787
:10085000D0F470E02281338184819581A901481B05
:10086000590B6417750724F4FC01E60FF71F09C044
:1008700040815181241B350BFB01E21BF109E80F7C
:10088000F91F8081089580E0089564279B013695C3
:10089000279560FF04C081E0282780EA3827C90136
:1008A0009695879520FF04C021E0822720EA9227B1
:1008B0009C013695279580FF04C081E0282780EAB7
:1008C0003827C9019695879520FF04C021E082272B
:1008D00020EA92279C013695279580FF04C081E08D
:1008E000282780EA3827C9019695879520FF04C0FC
:1008F00021E0822720EA92279C013695279580FFE8
:1009000004C081E0282780EA3827C9019695879599
:1009100020FF04C021E0822720EA922708950F9348
:100920001F93CF93DF938C0169E00E9425048033ED
:10093000D8F08A3340F48053C82FD0E0DC2FCC2786
:10094000D295D07F13C0813478F0873410F4875368
:1009500005C09FE9980F963038F4875590E0C92F6D
:10096000D82FD295D07F02C0C0E0D0E06AE0C801A5
:100970000E9425048033B8F08A3330F48053282F46
:1009800030E0322F222711C0813468F0873418F408
:1009900020E039EC06C09FE9980F963020F420E063
:1009A00039EA380F02C020E030E0C22BD32B6BE0D5
:1009B000C8010E9425048033A0F08A3310F48053CC
:1009C0000BC0813470F0873410F4875305C09FE961
:1009D000980F963030F4875590E1899FA00111243B
:1009E00002C040E050E0C42BD52B6CE0C8010E944F
:1009F0002504803388F08A3310F480530BC081348F
:100A000058F0873410F4875305C09FE9980F96304B
:100A100018F4875590E002C080E090E08C2B9D2B6D
:100A2000DF91CF911F910F9108950F931F93CF9353
:100A3000DF93EC0161E00E942504482F6FEF7FEF08
:100A4000CE010E9445048C0162E0CE010E94250483
:100A5000482FB801CE010E9445048C0163E0CE010D
:100A60000E942504482FB801CE010E9445048C0144
:100A700064E0CE010E942504482FB801CE010E94F7
:100A800045048C0165E0CE010E942504482FB80181
:100A9000CE010E9445048C0166E0CE010E9425042F
:100AA000482FB801CE010E9445048C0167E0CE01B9
:100AB0000E942504482FB801CE010E9445048C01F4
:100AC00068E0CE010E942504482FB801CE01DF91D5
:100AD000CF911F910F910C9445046F927F928F924A
:100AE0009F92AF92BF92CF92DF92EF92FF920F93BD
:100AF0001F93CF93DF931F92CDB7DEB73C017B01ED
:100B00006A015901FB011082FA011082F901108279
:100B1000F8011082FC0180858E30B0F060E0C301E6
:100B20000E9425048B3581F46DE0C3010E942504E9
:100B30008D3551F4C3010E948F044C01C3010E9402
:100B400015058816990611F080E0D1C061E0C30157
:100B50000E942504282F803380F02A3358F0213456
:100B600060F0273410F4275305C08FE9820F8630D8
:100B700020F427552295207F01C020E062E0C301C8
:100B800029830E9425042981803380F08A3310F460
:100B900080530DC0813450F0873410F4875307C060
:100BA0009FE9980F963010F4875501C080E0822BA2
:100BB000F701808363E0C3010E942504282F80335E
:100BC00080F08A3358F0813460F0873410F4275372
:100BD00005C08FE9820F863020F427552295207FAB
:100BE00001C020E064E0C30129830E94250429811B
:100BF000803380F08A3310F480530DC0813450F07C
:100C0000873410F4875307C09FE9980F963010F48B
:100C1000875501C080E0822BF601808365E0C30127
:100C20000E942504282F803380F08A3358F08134C5
:100C300060F0873410F4275305C08FE9820F8630A7
:100C400020F427552295207F01C020E066E0C301F3
:100C500029830E9425042981803380F08A3310F48F
:100C600080530DC0813450F0873410F4875307C08F
:100C70009FE9980F963010F4875501C080E0822BD1
:100C8000F501808367E0C3010E942504282F80338B
:100C900080F08A3358F0813460F0873410F42753A1
:100CA00005C08FE9820F863020F427552295207FDA
:100CB00001C020E068E0C30129830E942504298146
:100CC000803380F08A3310F480530DC0813450F0AB
:100CD000873410F4875307C09FE9980F963010F4BB
:100CE000875501C080E0822BF801808381E00F905E
:100CF000DF91CF911F910F91FF90EF90DF90CF90F8
:100D0000BF90AF909F908F907F906F900895EF92DB
:100D1000FF920F931F93CF93DF93EC01E62EF42EF7
:100D2000122F888199819F838E839D838C8318865F
:100D30006BE5CE010E94F1032E2D22952F70822F9C
:100D400090E08A30910514F460E304C00A97069796
:100D500018F467E5620F01C06AE7CE010E94F10353
:100D60006E2D6F70862F90E08A30910514F4605DCF
:100D700006C00A97069710F4695A01C06AE7CE01C7
:100D80000E94F1036F2D62956F70862F90E08A307C
:100D9000910514F4605D06C00A97069710F4695A2D
:100DA00001C06AE7CE010E94F1036F2D6F70862F9C
:100DB00090E08A30910514F4605D06C00A970697AA
:100DC00010F4695A01C06AE7CE010E94F103612F55
:100DD00062956F70862F90E08A30910514F4605D03
:100DE00006C00A97069710F4695A01C06AE7CE0157
:100DF0000E94F103612F6F70862F90E08A30910579
:100E000014F4605D06C00A97069710F4695A01C091
:100E10006AE7CE010E94F103602F62956F70862F02
:100E200090E08A30910514F4605D06C00A97069739
:100E300010F4695A01C06AE7CE010E94F103602FE5
:100E40006F70862F90E08A30910514F4605D06C0C3
:100E50000A97069710F4695A01C06AE7CE010E940A
:100E6000F103CE010E9415058C01BC01672F772785
:100E700062956F706A30710510F4605D07C0CB0138
:100E80000A97069710F4695A01C06AE7CE010E94DA
:100E9000F103612F7727CB018F7099276F700A9725
:100EA00010F4605D01C0695ACE010E94F103B801DF
:100EB00094E0769567959A95E1F7CB018F70992725
:100EC0006F700A9710F4605D01C0695ACE010E94EC
:100ED000F103C8018F709927602F6F700A9710F483
:100EE000605D01C0695ACE010E94F1036DE5CE013B
:100EF000DF91CF911F910F91FF90EF900C94F10330
:100F00000F93CF93DF93EC01862F642F422F813212
:100F100049F1A0F48230C9F08131F1F0813009F05B
:100F200047C0462F62E0CE010E948706BE01CE0177
:100F30000996DF91CF910F910C94D203813429F15E
:100F4000813561F18133A1F514C0202FCE01DF91ED
:100F5000CF910F910C94DA00CE01DF91CF910F91D8
:100F60000C94DB00202FCE01DF91CF910F910C94D8
:100F700038012830E8F421E0011101C020E0CE0161
:100F8000DF91CF910F910C946C02283088F4202FC0
:100F9000CE01DF91CF910F910C94A40221E00111B9
:100FA00001C020E0CE01DF91CF910F910C94DC02C3
:100FB000DF91CF910F910895EF92FF920F931F93BE
:100FC000CF93DF9300D000D0CDB7DEB77C01BC015A
:100FD00009960E94A2038823C1F08E010F5F1F4F64
:100FE0009E012E5F3F4FAE014D5F5F4FBE016C5FB4
:100FF0007F4FC7010E946D05882351F009812A8126
:101000004B816C81C7010E948007C7010E94680064
:101010000F900F900F900F90DF91CF911F910F9134
:10102000FF90EF900895CF93DF93CDB7DEB72A9767
:101030000FB6F894DEBF0FBECDBF0E9457001C82D2
:101040001B821E821D8218861F8219868EE090E008
:101050000E942E099A838983009749F09C01225FA0
:101060003F4F3C832B8398878F839E838D83CE0154
:101070000A960E94760321E040E051EE60E070E0C5
:10108000CE010A960E94770381110BC0CE010A9609
:101090000E94A00389819A81009791F00E94C6095D
:1010A0000FC07894CE0101960E94DC072FEF81EEED
:1010B00094E0215080409040E1F700C00000F2CF62
:1010C00081E090E02A960FB6F894DEBF0FBECDBF48
:1010D000DF91CF9108950F93CF93DF93EC01022F0F
:1010E000242F462F61E20E948706BE01CE01099699
:1010F000DF91CF910F910C94D2030F93CF93DF9395
:10110000EC01022F242F462F61E50E948706BE01C5
:10111000CE010996DF91CF910F910C94D2031092DA
:10112000680010926900109266001092670008959E
:101130000F931F93CF93DF93EC0188858E3068F077
:1011400060E0CE010E9425048B3549F46DE0CE01AC
:101150000E9425048D3519F404C081E00FC08FEF83
:101160000DC0CE010E948F048C01CE010E94150596
:101170000817190711F480E001C08EEFDF91CF91BD
:101180001F910F91089510926D0010926C001092B3
:101190006F0010926E001092710010927000109209
:1011A000720080E890E00E942E0990936B0080937B
:1011B0006A00009779F09C0120583F4F30936D00F2
:1011C00020936C00909371008093700090936F0057
:1011D00080936E00089580916A0090916B00009753
:1011E00031F00E94C60910926B0010926A001092B2
:1011F0006D0010926C0010926F0010926E001092B1
:10120000710010927000109272000895A1E21A2EDF
:10121000AA1BBB1BFD010DC0AA1FBB1FEE1FFF1F9A
:10122000A217B307E407F50720F0A21BB30BE40BEA
:10123000F50B661F771F881F991F1A9469F7609531
:101240007095809590959B01AC01BD01CF010895EB
:10125000EE0FFF1F0590F491E02D0994CF93DF93DB
:101260008230910510F482E090E0E0917500F091F9
:10127000760020E030E0A0E0B0E0309739F1408126
:10128000518148175907B8F04817590771F48281FE
:101290009381109729F013969C938E9312972CC0EC
:1012A000909376008093750027C02115310531F0A9
:1012B0004217530718F0A901DB0101C0EF019A01A1
:1012C000BD01DF010280F381E02DD7CF211531056B
:1012D000F9F0281B390B2430310580F48A819B8179
:1012E0006115710521F0FB019383828304C0909303
:1012F000760080937500FE01329644C0FE01E20F35
:10130000F31F8193919322503109398328833AC086
:101310002091730030917400232B41F420916200DE
:10132000309163003093740020937300209160002B
:10133000309161002115310541F42DB73EB7409140
:10134000640050916500241B350BE0917300F0910F
:101350007400E217F307A0F42E1B3F0B2817390780
:1013600078F0AC014E5F5F4F2417350748F04E0F01
:101370005F1F50937400409373008193919302C058
:10138000E0E0F0E0CF01DF91CF910895CF93DF93BC
:10139000009709F487C0FC01329713821282C09132
:1013A0007500D0917600209781F420813181280F3B
:1013B000391F80917300909174008217930779F51B
:1013C000F0937400E09373006DC0DE0120E030E024
:1013D000AE17BF0750F412964D915C9113979D0183
:1013E0004115510509F1DA01F3CFB383A28340819E
:1013F0005181840F951F8A179B0771F48D919C91E1
:101400001197840F951F02969183808312968D9178
:101410009C911397938382832115310529F4F093CE
:101420007600E09375003EC0D9011396FC93EE93CD
:1014300012974D915D91A40FB51FEA17FB0779F440
:1014400080819181840F951F0296D90111969C93FA
:101450008E938281938113969C938E931297E0E0F2
:10146000F0E08A819B81009719F0FE01EC01F9CF31
:10147000CE01029628813981820F931F209173003B
:10148000309174002817390769F4309729F41092C5
:1014900076001092750002C013821282D0937400FD
:1014A000C0937300DF91CF91089510E0C8E5D0E0BC
:1014B00004C0FE010E942A092296CA35D107C9F745
:0414C000F894FFCFCE
:0614C4000000770080002B
:00000001FF
